{
  "_format": "hh-sol-artifact-1",
  "contractName": "XanaCollection",
  "sourceName": "contracts/XanaCollection.sol",
  "abi": [
    {
      "inputs": [
        {
          "internalType": "string",
          "name": "_name",
          "type": "string"
        },
        {
          "internalType": "string",
          "name": "_symbol",
          "type": "string"
        },
        {
          "internalType": "string",
          "name": "_initBaseURI",
          "type": "string"
        }
      ],
      "stateMutability": "nonpayable",
      "type": "constructor"
    },
    {
      "anonymous": false,
      "inputs": [
        {
          "indexed": true,
          "internalType": "address",
          "name": "owner",
          "type": "address"
        },
        {
          "indexed": true,
          "internalType": "address",
          "name": "approved",
          "type": "address"
        },
        {
          "indexed": true,
          "internalType": "uint256",
          "name": "tokenId",
          "type": "uint256"
        }
      ],
      "name": "Approval",
      "type": "event"
    },
    {
      "anonymous": false,
      "inputs": [
        {
          "indexed": true,
          "internalType": "address",
          "name": "owner",
          "type": "address"
        },
        {
          "indexed": true,
          "internalType": "address",
          "name": "operator",
          "type": "address"
        },
        {
          "indexed": false,
          "internalType": "bool",
          "name": "approved",
          "type": "bool"
        }
      ],
      "name": "ApprovalForAll",
      "type": "event"
    },
    {
      "anonymous": false,
      "inputs": [
        {
          "indexed": true,
          "internalType": "address",
          "name": "previousOwner",
          "type": "address"
        },
        {
          "indexed": true,
          "internalType": "address",
          "name": "newOwner",
          "type": "address"
        }
      ],
      "name": "OwnershipTransferred",
      "type": "event"
    },
    {
      "anonymous": false,
      "inputs": [
        {
          "indexed": true,
          "internalType": "address",
          "name": "from",
          "type": "address"
        },
        {
          "indexed": true,
          "internalType": "address",
          "name": "to",
          "type": "address"
        },
        {
          "indexed": true,
          "internalType": "uint256",
          "name": "tokenId",
          "type": "uint256"
        }
      ],
      "name": "Transfer",
      "type": "event"
    },
    {
      "inputs": [
        {
          "internalType": "address",
          "name": "to",
          "type": "address"
        },
        {
          "internalType": "uint256",
          "name": "tokenId",
          "type": "uint256"
        }
      ],
      "name": "approve",
      "outputs": [],
      "stateMutability": "nonpayable",
      "type": "function"
    },
    {
      "inputs": [
        {
          "internalType": "address",
          "name": "owner",
          "type": "address"
        }
      ],
      "name": "balanceOf",
      "outputs": [
        {
          "internalType": "uint256",
          "name": "",
          "type": "uint256"
        }
      ],
      "stateMutability": "view",
      "type": "function"
    },
    {
      "inputs": [],
      "name": "baseExtension",
      "outputs": [
        {
          "internalType": "string",
          "name": "",
          "type": "string"
        }
      ],
      "stateMutability": "view",
      "type": "function"
    },
    {
      "inputs": [],
      "name": "baseURI",
      "outputs": [
        {
          "internalType": "string",
          "name": "",
          "type": "string"
        }
      ],
      "stateMutability": "view",
      "type": "function"
    },
    {
      "inputs": [],
      "name": "cost",
      "outputs": [
        {
          "internalType": "uint256",
          "name": "",
          "type": "uint256"
        }
      ],
      "stateMutability": "view",
      "type": "function"
    },
    {
      "inputs": [
        {
          "internalType": "uint256",
          "name": "tokenId",
          "type": "uint256"
        }
      ],
      "name": "getApproved",
      "outputs": [
        {
          "internalType": "address",
          "name": "",
          "type": "address"
        }
      ],
      "stateMutability": "view",
      "type": "function"
    },
    {
      "inputs": [
        {
          "internalType": "address",
          "name": "owner",
          "type": "address"
        },
        {
          "internalType": "address",
          "name": "operator",
          "type": "address"
        }
      ],
      "name": "isApprovedForAll",
      "outputs": [
        {
          "internalType": "bool",
          "name": "",
          "type": "bool"
        }
      ],
      "stateMutability": "view",
      "type": "function"
    },
    {
      "inputs": [],
      "name": "maxMintAmount",
      "outputs": [
        {
          "internalType": "uint256",
          "name": "",
          "type": "uint256"
        }
      ],
      "stateMutability": "view",
      "type": "function"
    },
    {
      "inputs": [],
      "name": "maxSupply",
      "outputs": [
        {
          "internalType": "uint256",
          "name": "",
          "type": "uint256"
        }
      ],
      "stateMutability": "view",
      "type": "function"
    },
    {
      "inputs": [
        {
          "internalType": "address",
          "name": "_to",
          "type": "address"
        },
        {
          "internalType": "uint256",
          "name": "_mintAmount",
          "type": "uint256"
        }
      ],
      "name": "mint",
      "outputs": [],
      "stateMutability": "payable",
      "type": "function"
    },
    {
      "inputs": [],
      "name": "name",
      "outputs": [
        {
          "internalType": "string",
          "name": "",
          "type": "string"
        }
      ],
      "stateMutability": "view",
      "type": "function"
    },
    {
      "inputs": [],
      "name": "owner",
      "outputs": [
        {
          "internalType": "address",
          "name": "",
          "type": "address"
        }
      ],
      "stateMutability": "view",
      "type": "function"
    },
    {
      "inputs": [
        {
          "internalType": "uint256",
          "name": "tokenId",
          "type": "uint256"
        }
      ],
      "name": "ownerOf",
      "outputs": [
        {
          "internalType": "address",
          "name": "",
          "type": "address"
        }
      ],
      "stateMutability": "view",
      "type": "function"
    },
    {
      "inputs": [
        {
          "internalType": "bool",
          "name": "_state",
          "type": "bool"
        }
      ],
      "name": "pause",
      "outputs": [],
      "stateMutability": "nonpayable",
      "type": "function"
    },
    {
      "inputs": [],
      "name": "paused",
      "outputs": [
        {
          "internalType": "bool",
          "name": "",
          "type": "bool"
        }
      ],
      "stateMutability": "view",
      "type": "function"
    },
    {
      "inputs": [
        {
          "internalType": "address",
          "name": "_user",
          "type": "address"
        }
      ],
      "name": "removeWhitelistUser",
      "outputs": [],
      "stateMutability": "nonpayable",
      "type": "function"
    },
    {
      "inputs": [],
      "name": "renounceOwnership",
      "outputs": [],
      "stateMutability": "nonpayable",
      "type": "function"
    },
    {
      "inputs": [
        {
          "internalType": "address",
          "name": "from",
          "type": "address"
        },
        {
          "internalType": "address",
          "name": "to",
          "type": "address"
        },
        {
          "internalType": "uint256",
          "name": "tokenId",
          "type": "uint256"
        }
      ],
      "name": "safeTransferFrom",
      "outputs": [],
      "stateMutability": "nonpayable",
      "type": "function"
    },
    {
      "inputs": [
        {
          "internalType": "address",
          "name": "from",
          "type": "address"
        },
        {
          "internalType": "address",
          "name": "to",
          "type": "address"
        },
        {
          "internalType": "uint256",
          "name": "tokenId",
          "type": "uint256"
        },
        {
          "internalType": "bytes",
          "name": "data",
          "type": "bytes"
        }
      ],
      "name": "safeTransferFrom",
      "outputs": [],
      "stateMutability": "nonpayable",
      "type": "function"
    },
    {
      "inputs": [
        {
          "internalType": "address",
          "name": "operator",
          "type": "address"
        },
        {
          "internalType": "bool",
          "name": "approved",
          "type": "bool"
        }
      ],
      "name": "setApprovalForAll",
      "outputs": [],
      "stateMutability": "nonpayable",
      "type": "function"
    },
    {
      "inputs": [
        {
          "internalType": "string",
          "name": "_newBaseExtension",
          "type": "string"
        }
      ],
      "name": "setBaseExtension",
      "outputs": [],
      "stateMutability": "nonpayable",
      "type": "function"
    },
    {
      "inputs": [
        {
          "internalType": "string",
          "name": "_newBaseURI",
          "type": "string"
        }
      ],
      "name": "setBaseURI",
      "outputs": [],
      "stateMutability": "nonpayable",
      "type": "function"
    },
    {
      "inputs": [
        {
          "internalType": "uint256",
          "name": "_newCost",
          "type": "uint256"
        }
      ],
      "name": "setCost",
      "outputs": [],
      "stateMutability": "nonpayable",
      "type": "function"
    },
    {
      "inputs": [
        {
          "internalType": "uint256",
          "name": "_newmaxMintAmount",
          "type": "uint256"
        }
      ],
      "name": "setmaxMintAmount",
      "outputs": [],
      "stateMutability": "nonpayable",
      "type": "function"
    },
    {
      "inputs": [
        {
          "internalType": "bytes4",
          "name": "interfaceId",
          "type": "bytes4"
        }
      ],
      "name": "supportsInterface",
      "outputs": [
        {
          "internalType": "bool",
          "name": "",
          "type": "bool"
        }
      ],
      "stateMutability": "view",
      "type": "function"
    },
    {
      "inputs": [],
      "name": "symbol",
      "outputs": [
        {
          "internalType": "string",
          "name": "",
          "type": "string"
        }
      ],
      "stateMutability": "view",
      "type": "function"
    },
    {
      "inputs": [
        {
          "internalType": "uint256",
          "name": "index",
          "type": "uint256"
        }
      ],
      "name": "tokenByIndex",
      "outputs": [
        {
          "internalType": "uint256",
          "name": "",
          "type": "uint256"
        }
      ],
      "stateMutability": "view",
      "type": "function"
    },
    {
      "inputs": [
        {
          "internalType": "address",
          "name": "owner",
          "type": "address"
        },
        {
          "internalType": "uint256",
          "name": "index",
          "type": "uint256"
        }
      ],
      "name": "tokenOfOwnerByIndex",
      "outputs": [
        {
          "internalType": "uint256",
          "name": "",
          "type": "uint256"
        }
      ],
      "stateMutability": "view",
      "type": "function"
    },
    {
      "inputs": [
        {
          "internalType": "uint256",
          "name": "tokenId",
          "type": "uint256"
        }
      ],
      "name": "tokenURI",
      "outputs": [
        {
          "internalType": "string",
          "name": "",
          "type": "string"
        }
      ],
      "stateMutability": "view",
      "type": "function"
    },
    {
      "inputs": [],
      "name": "totalSupply",
      "outputs": [
        {
          "internalType": "uint256",
          "name": "",
          "type": "uint256"
        }
      ],
      "stateMutability": "view",
      "type": "function"
    },
    {
      "inputs": [
        {
          "internalType": "address",
          "name": "from",
          "type": "address"
        },
        {
          "internalType": "address",
          "name": "to",
          "type": "address"
        },
        {
          "internalType": "uint256",
          "name": "tokenId",
          "type": "uint256"
        }
      ],
      "name": "transferFrom",
      "outputs": [],
      "stateMutability": "nonpayable",
      "type": "function"
    },
    {
      "inputs": [
        {
          "internalType": "address",
          "name": "newOwner",
          "type": "address"
        }
      ],
      "name": "transferOwnership",
      "outputs": [],
      "stateMutability": "nonpayable",
      "type": "function"
    },
    {
      "inputs": [
        {
          "internalType": "address",
          "name": "_owner",
          "type": "address"
        }
      ],
      "name": "walletOfOwner",
      "outputs": [
        {
          "internalType": "uint256[]",
          "name": "",
          "type": "uint256[]"
        }
      ],
      "stateMutability": "view",
      "type": "function"
    },
    {
      "inputs": [
        {
          "internalType": "address",
          "name": "_user",
          "type": "address"
        }
      ],
      "name": "whitelistUser",
      "outputs": [],
      "stateMutability": "nonpayable",
      "type": "function"
    },
    {
      "inputs": [
        {
          "internalType": "address",
          "name": "",
          "type": "address"
        }
      ],
      "name": "whitelisted",
      "outputs": [
        {
          "internalType": "bool",
          "name": "",
          "type": "bool"
        }
      ],
      "stateMutability": "view",
      "type": "function"
    },
    {
      "inputs": [],
      "name": "withdraw",
      "outputs": [],
      "stateMutability": "payable",
      "type": "function"
    }
  ],
  "bytecode": "0x60806040526040518060400160405280600581526020017f2e6a736f6e000000000000000000000000000000000000000000000000000000815250600c90816200004a9190620012a2565b5066b1a2bc2ec50000600d556032600e556014600f556000601060006101000a81548160ff0219169083151502179055503480156200008857600080fd5b5060405162005eed38038062005eed8339818101604052810190620000ae9190620014ed565b82828160009081620000c19190620012a2565b508060019081620000d39190620012a2565b505050620000f6620000ea6200012360201b60201c565b6200012b60201b60201c565b6200010781620001f160201b60201c565b6200011a3360016200021660201b60201c565b50505062001c06565b600033905090565b6000600a60009054906101000a900473ffffffffffffffffffffffffffffffffffffffff16905081600a60006101000a81548173ffffffffffffffffffffffffffffffffffffffff021916908373ffffffffffffffffffffffffffffffffffffffff1602179055508173ffffffffffffffffffffffffffffffffffffffff168173ffffffffffffffffffffffffffffffffffffffff167f8be0079c531659141344cd1fd0a4f28419497f9722a3daafe3b4186f6b6457e060405160405180910390a35050565b620002016200038560201b60201c565b80600b9081620002129190620012a2565b5050565b6000620002286200041660201b60201c565b9050601060009054906101000a900460ff16156200024557600080fd5b600082116200025357600080fd5b600f548211156200026357600080fd5b600e548282620002749190620015d5565b11156200028057600080fd5b620002906200042360201b60201c565b73ffffffffffffffffffffffffffffffffffffffff163373ffffffffffffffffffffffffffffffffffffffff16146200033b5760011515601160003373ffffffffffffffffffffffffffffffffffffffff1673ffffffffffffffffffffffffffffffffffffffff16815260200190815260200160002060009054906101000a900460ff161515146200033a5781600d546200032c919062001610565b3410156200033957600080fd5b5b5b6000600190505b8281116200037f57620003698482846200035d9190620015d5565b6200044d60201b60201c565b808062000376906200165b565b91505062000342565b50505050565b620003956200012360201b60201c565b73ffffffffffffffffffffffffffffffffffffffff16620003bb6200042360201b60201c565b73ffffffffffffffffffffffffffffffffffffffff161462000414576040517f08c379a00000000000000000000000000000000000000000000000000000000081526004016200040b9062001709565b60405180910390fd5b565b6000600880549050905090565b6000600a60009054906101000a900473ffffffffffffffffffffffffffffffffffffffff16905090565b6200046f8282604051806020016040528060008152506200047360201b60201c565b5050565b620004858383620004e160201b60201c565b6200049a60008484846200072760201b60201c565b620004dc576040517f08c379a0000000000000000000000000000000000000000000000000000000008152600401620004d390620017a1565b60405180910390fd5b505050565b600073ffffffffffffffffffffffffffffffffffffffff168273ffffffffffffffffffffffffffffffffffffffff160362000553576040517f08c379a00000000000000000000000000000000000000000000000000000000081526004016200054a9062001813565b60405180910390fd5b6200056481620008d060201b60201c565b15620005a7576040517f08c379a00000000000000000000000000000000000000000000000000000000081526004016200059e9062001885565b60405180910390fd5b620005bd6000838360016200091960201b60201c565b620005ce81620008d060201b60201c565b1562000611576040517f08c379a0000000000000000000000000000000000000000000000000000000008152600401620006089062001885565b60405180910390fd5b6001600360008473ffffffffffffffffffffffffffffffffffffffff1673ffffffffffffffffffffffffffffffffffffffff16815260200190815260200160002060008282540192505081905550816002600083815260200190815260200160002060006101000a81548173ffffffffffffffffffffffffffffffffffffffff021916908373ffffffffffffffffffffffffffffffffffffffff160217905550808273ffffffffffffffffffffffffffffffffffffffff16600073ffffffffffffffffffffffffffffffffffffffff167fddf252ad1be2c89b69c2b068fc378daa952ba7f163c4a11628f55a4df523b3ef60405160405180910390a46200072360008383600162000aad60201b60201c565b5050565b6000620007558473ffffffffffffffffffffffffffffffffffffffff1662000ab360201b620015aa1760201c565b15620008c3578373ffffffffffffffffffffffffffffffffffffffff1663150b7a02620007876200012360201b60201c565b8786866040518563ffffffff1660e01b8152600401620007ab94939291906200195a565b6020604051808303816000875af1925050508015620007ea57506040513d601f19601f82011682018060405250810190620007e7919062001a0b565b60015b62000872573d80600081146200081d576040519150601f19603f3d011682016040523d82523d6000602084013e62000822565b606091505b5060008151036200086a576040517f08c379a00000000000000000000000000000000000000000000000000000000081526004016200086190620017a1565b60405180910390fd5b805181602001fd5b63150b7a0260e01b7bffffffffffffffffffffffffffffffffffffffffffffffffffffffff1916817bffffffffffffffffffffffffffffffffffffffffffffffffffffffff191614915050620008c8565b600190505b949350505050565b60008073ffffffffffffffffffffffffffffffffffffffff16620008fa8362000ad660201b60201c565b73ffffffffffffffffffffffffffffffffffffffff1614159050919050565b620009328484848462000b1360201b620015cd1760201c565b600181111562000979576040517f08c379a0000000000000000000000000000000000000000000000000000000008152600401620009709062001ab3565b60405180910390fd5b6000829050600073ffffffffffffffffffffffffffffffffffffffff168573ffffffffffffffffffffffffffffffffffffffff1603620009ca57620009c48162000c4060201b60201c565b62000a12565b8373ffffffffffffffffffffffffffffffffffffffff168573ffffffffffffffffffffffffffffffffffffffff161462000a115762000a10858262000c8960201b60201c565b5b5b600073ffffffffffffffffffffffffffffffffffffffff168473ffffffffffffffffffffffffffffffffffffffff160362000a5e5762000a588162000e0660201b60201c565b62000aa6565b8473ffffffffffffffffffffffffffffffffffffffff168473ffffffffffffffffffffffffffffffffffffffff161462000aa55762000aa4848262000ee260201b60201c565b5b5b5050505050565b50505050565b6000808273ffffffffffffffffffffffffffffffffffffffff163b119050919050565b60006002600083815260200190815260200160002060009054906101000a900473ffffffffffffffffffffffffffffffffffffffff169050919050565b600181111562000c3a57600073ffffffffffffffffffffffffffffffffffffffff168473ffffffffffffffffffffffffffffffffffffffff161462000bab5780600360008673ffffffffffffffffffffffffffffffffffffffff1673ffffffffffffffffffffffffffffffffffffffff168152602001908152602001600020600082825462000ba3919062001ad5565b925050819055505b600073ffffffffffffffffffffffffffffffffffffffff168373ffffffffffffffffffffffffffffffffffffffff161462000c395780600360008573ffffffffffffffffffffffffffffffffffffffff1673ffffffffffffffffffffffffffffffffffffffff168152602001908152602001600020600082825462000c319190620015d5565b925050819055505b5b50505050565b6008805490506009600083815260200190815260200160002081905550600881908060018154018082558091505060019003906000526020600020016000909190919091505550565b6000600162000ca38462000f6e60201b620011091760201c565b62000caf919062001ad5565b905060006007600084815260200190815260200160002054905081811462000d95576000600660008673ffffffffffffffffffffffffffffffffffffffff1673ffffffffffffffffffffffffffffffffffffffff168152602001908152602001600020600084815260200190815260200160002054905080600660008773ffffffffffffffffffffffffffffffffffffffff1673ffffffffffffffffffffffffffffffffffffffff168152602001908152602001600020600084815260200190815260200160002081905550816007600083815260200190815260200160002081905550505b6007600084815260200190815260200160002060009055600660008573ffffffffffffffffffffffffffffffffffffffff1673ffffffffffffffffffffffffffffffffffffffff16815260200190815260200160002060008381526020019081526020016000206000905550505050565b6000600160088054905062000e1c919062001ad5565b905060006009600084815260200190815260200160002054905060006008838154811062000e4f5762000e4e62001b10565b5b90600052602060002001549050806008838154811062000e745762000e7362001b10565b5b90600052602060002001819055508160096000838152602001908152602001600020819055506009600085815260200190815260200160002060009055600880548062000ec65762000ec562001b3f565b5b6001900381819060005260206000200160009055905550505050565b600062000efa8362000f6e60201b620011091760201c565b905081600660008573ffffffffffffffffffffffffffffffffffffffff1673ffffffffffffffffffffffffffffffffffffffff168152602001908152602001600020600083815260200190815260200160002081905550806007600084815260200190815260200160002081905550505050565b60008073ffffffffffffffffffffffffffffffffffffffff168273ffffffffffffffffffffffffffffffffffffffff160362000fe1576040517f08c379a000000000000000000000000000000000000000000000000000000000815260040162000fd89062001be4565b60405180910390fd5b600360008373ffffffffffffffffffffffffffffffffffffffff1673ffffffffffffffffffffffffffffffffffffffff168152602001908152602001600020549050919050565b600081519050919050565b7f4e487b7100000000000000000000000000000000000000000000000000000000600052604160045260246000fd5b7f4e487b7100000000000000000000000000000000000000000000000000000000600052602260045260246000fd5b60006002820490506001821680620010aa57607f821691505b602082108103620010c057620010bf62001062565b5b50919050565b60008190508160005260206000209050919050565b60006020601f8301049050919050565b600082821b905092915050565b6000600883026200112a7fffffffffffffffffffffffffffffffffffffffffffffffffffffffffffffffff82620010eb565b620011368683620010eb565b95508019841693508086168417925050509392505050565b6000819050919050565b6000819050919050565b6000620011836200117d62001177846200114e565b62001158565b6200114e565b9050919050565b6000819050919050565b6200119f8362001162565b620011b7620011ae826200118a565b848454620010f8565b825550505050565b600090565b620011ce620011bf565b620011db81848462001194565b505050565b5b818110156200120357620011f7600082620011c4565b600181019050620011e1565b5050565b601f82111562001252576200121c81620010c6565b6200122784620010db565b8101602085101562001237578190505b6200124f6200124685620010db565b830182620011e0565b50505b505050565b600082821c905092915050565b6000620012776000198460080262001257565b1980831691505092915050565b600062001292838362001264565b9150826002028217905092915050565b620012ad8262001028565b67ffffffffffffffff811115620012c957620012c862001033565b5b620012d5825462001091565b620012e282828562001207565b600060209050601f8311600181146200131a576000841562001305578287015190505b62001311858262001284565b86555062001381565b601f1984166200132a86620010c6565b60005b8281101562001354578489015182556001820191506020850194506020810190506200132d565b8683101562001374578489015162001370601f89168262001264565b8355505b6001600288020188555050505b505050505050565b6000604051905090565b600080fd5b600080fd5b600080fd5b600080fd5b6000601f19601f8301169050919050565b620013c382620013a7565b810181811067ffffffffffffffff82111715620013e557620013e462001033565b5b80604052505050565b6000620013fa62001389565b9050620014088282620013b8565b919050565b600067ffffffffffffffff8211156200142b576200142a62001033565b5b6200143682620013a7565b9050602081019050919050565b60005b838110156200146357808201518184015260208101905062001446565b60008484015250505050565b60006200148662001480846200140d565b620013ee565b905082815260208101848484011115620014a557620014a4620013a2565b5b620014b284828562001443565b509392505050565b600082601f830112620014d257620014d16200139d565b5b8151620014e48482602086016200146f565b91505092915050565b60008060006060848603121562001509576200150862001393565b5b600084015167ffffffffffffffff8111156200152a576200152962001398565b5b6200153886828701620014ba565b935050602084015167ffffffffffffffff8111156200155c576200155b62001398565b5b6200156a86828701620014ba565b925050604084015167ffffffffffffffff8111156200158e576200158d62001398565b5b6200159c86828701620014ba565b9150509250925092565b7f4e487b7100000000000000000000000000000000000000000000000000000000600052601160045260246000fd5b6000620015e2826200114e565b9150620015ef836200114e565b92508282019050808211156200160a5762001609620015a6565b5b92915050565b60006200161d826200114e565b91506200162a836200114e565b92508282026200163a816200114e565b91508282048414831517620016545762001653620015a6565b5b5092915050565b600062001668826200114e565b91507fffffffffffffffffffffffffffffffffffffffffffffffffffffffffffffffff82036200169d576200169c620015a6565b5b600182019050919050565b600082825260208201905092915050565b7f4f776e61626c653a2063616c6c6572206973206e6f7420746865206f776e6572600082015250565b6000620016f1602083620016a8565b9150620016fe82620016b9565b602082019050919050565b600060208201905081810360008301526200172481620016e2565b9050919050565b7f4552433732313a207472616e7366657220746f206e6f6e20455243373231526560008201527f63656976657220696d706c656d656e7465720000000000000000000000000000602082015250565b600062001789603283620016a8565b915062001796826200172b565b604082019050919050565b60006020820190508181036000830152620017bc816200177a565b9050919050565b7f4552433732313a206d696e7420746f20746865207a65726f2061646472657373600082015250565b6000620017fb602083620016a8565b91506200180882620017c3565b602082019050919050565b600060208201905081810360008301526200182e81620017ec565b9050919050565b7f4552433732313a20746f6b656e20616c7265616479206d696e74656400000000600082015250565b60006200186d601c83620016a8565b91506200187a8262001835565b602082019050919050565b60006020820190508181036000830152620018a0816200185e565b9050919050565b600073ffffffffffffffffffffffffffffffffffffffff82169050919050565b6000620018d482620018a7565b9050919050565b620018e681620018c7565b82525050565b620018f7816200114e565b82525050565b600081519050919050565b600082825260208201905092915050565b60006200192682620018fd565b62001932818562001908565b93506200194481856020860162001443565b6200194f81620013a7565b840191505092915050565b6000608082019050620019716000830187620018db565b620019806020830186620018db565b6200198f6040830185620018ec565b8181036060830152620019a3818462001919565b905095945050505050565b60007fffffffff0000000000000000000000000000000000000000000000000000000082169050919050565b620019e581620019ae565b8114620019f157600080fd5b50565b60008151905062001a0581620019da565b92915050565b60006020828403121562001a245762001a2362001393565b5b600062001a3484828501620019f4565b91505092915050565b7f455243373231456e756d657261626c653a20636f6e736563757469766520747260008201527f616e7366657273206e6f7420737570706f727465640000000000000000000000602082015250565b600062001a9b603583620016a8565b915062001aa88262001a3d565b604082019050919050565b6000602082019050818103600083015262001ace8162001a8c565b9050919050565b600062001ae2826200114e565b915062001aef836200114e565b925082820390508181111562001b0a5762001b09620015a6565b5b92915050565b7f4e487b7100000000000000000000000000000000000000000000000000000000600052603260045260246000fd5b7f4e487b7100000000000000000000000000000000000000000000000000000000600052603160045260246000fd5b7f4552433732313a2061646472657373207a65726f206973206e6f74206120766160008201527f6c6964206f776e65720000000000000000000000000000000000000000000000602082015250565b600062001bcc602983620016a8565b915062001bd98262001b6e565b604082019050919050565b6000602082019050818103600083015262001bff8162001bbd565b9050919050565b6142d78062001c166000396000f3fe60806040526004361061020f5760003560e01c806355f804b311610118578063a22cb465116100a0578063d5abeb011161006f578063d5abeb011461077f578063d936547e146107aa578063da3ef23f146107e7578063e985e9c514610810578063f2fde38b1461084d5761020f565b8063a22cb465146106c5578063b88d4fde146106ee578063c668286214610717578063c87b56dd146107425761020f565b806370a08231116100e757806370a08231146105f2578063715018a61461062f5780637f00c7a6146106465780638da5cb5b1461066f57806395d89b411461069a5761020f565b806355f804b3146105365780635c975abb1461055f5780636352211e1461058a5780636c0360eb146105c75761020f565b80632f745c591161019b57806342842e0e1161016a57806342842e0e14610441578063438b63001461046a57806344a0d68a146104a75780634a4c560d146104d05780634f6ccce7146104f95761020f565b80632f745c59146103b557806330cc7ae0146103f25780633ccfd60b1461041b57806340c10f19146104255761020f565b8063095ea7b3116101e2578063095ea7b3146102e257806313faede61461030b57806318160ddd14610336578063239c70ae1461036157806323b872dd1461038c5761020f565b806301ffc9a71461021457806302329a291461025157806306fdde031461027a578063081812fc146102a5575b600080fd5b34801561022057600080fd5b5061023b60048036038101906102369190612c09565b610876565b6040516102489190612c51565b60405180910390f35b34801561025d57600080fd5b5061027860048036038101906102739190612c98565b6108f0565b005b34801561028657600080fd5b5061028f610915565b60405161029c9190612d55565b60405180910390f35b3480156102b157600080fd5b506102cc60048036038101906102c79190612dad565b6109a7565b6040516102d99190612e1b565b60405180910390f35b3480156102ee57600080fd5b5061030960048036038101906103049190612e62565b6109ed565b005b34801561031757600080fd5b50610320610b04565b60405161032d9190612eb1565b60405180910390f35b34801561034257600080fd5b5061034b610b0a565b6040516103589190612eb1565b60405180910390f35b34801561036d57600080fd5b50610376610b17565b6040516103839190612eb1565b60405180910390f35b34801561039857600080fd5b506103b360048036038101906103ae9190612ecc565b610b1d565b005b3480156103c157600080fd5b506103dc60048036038101906103d79190612e62565b610b7d565b6040516103e99190612eb1565b60405180910390f35b3480156103fe57600080fd5b5061041960048036038101906104149190612f1f565b610c22565b005b610423610c85565b005b61043f600480360381019061043a9190612e62565b610ccd565b005b34801561044d57600080fd5b5061046860048036038101906104639190612ecc565b610e13565b005b34801561047657600080fd5b50610491600480360381019061048c9190612f1f565b610e33565b60405161049e919061300a565b60405180910390f35b3480156104b357600080fd5b506104ce60048036038101906104c99190612dad565b610ee1565b005b3480156104dc57600080fd5b506104f760048036038101906104f29190612f1f565b610ef3565b005b34801561050557600080fd5b50610520600480360381019061051b9190612dad565b610f56565b60405161052d9190612eb1565b60405180910390f35b34801561054257600080fd5b5061055d60048036038101906105589190613161565b610fc7565b005b34801561056b57600080fd5b50610574610fe2565b6040516105819190612c51565b60405180910390f35b34801561059657600080fd5b506105b160048036038101906105ac9190612dad565b610ff5565b6040516105be9190612e1b565b60405180910390f35b3480156105d357600080fd5b506105dc61107b565b6040516105e99190612d55565b60405180910390f35b3480156105fe57600080fd5b5061061960048036038101906106149190612f1f565b611109565b6040516106269190612eb1565b60405180910390f35b34801561063b57600080fd5b506106446111c0565b005b34801561065257600080fd5b5061066d60048036038101906106689190612dad565b6111d4565b005b34801561067b57600080fd5b506106846111e6565b6040516106919190612e1b565b60405180910390f35b3480156106a657600080fd5b506106af611210565b6040516106bc9190612d55565b60405180910390f35b3480156106d157600080fd5b506106ec60048036038101906106e791906131aa565b6112a2565b005b3480156106fa57600080fd5b506107156004803603810190610710919061328b565b6112b8565b005b34801561072357600080fd5b5061072c61131a565b6040516107399190612d55565b60405180910390f35b34801561074e57600080fd5b5061076960048036038101906107649190612dad565b6113a8565b6040516107769190612d55565b60405180910390f35b34801561078b57600080fd5b50610794611452565b6040516107a19190612eb1565b60405180910390f35b3480156107b657600080fd5b506107d160048036038101906107cc9190612f1f565b611458565b6040516107de9190612c51565b60405180910390f35b3480156107f357600080fd5b5061080e60048036038101906108099190613161565b611478565b005b34801561081c57600080fd5b506108376004803603810190610832919061330e565b611493565b6040516108449190612c51565b60405180910390f35b34801561085957600080fd5b50610874600480360381019061086f9190612f1f565b611527565b005b60007f780e9d63000000000000000000000000000000000000000000000000000000007bffffffffffffffffffffffffffffffffffffffffffffffffffffffff1916827bffffffffffffffffffffffffffffffffffffffffffffffffffffffff191614806108e957506108e8826116f3565b5b9050919050565b6108f86117d5565b80601060006101000a81548160ff02191690831515021790555050565b6060600080546109249061337d565b80601f01602080910402602001604051908101604052809291908181526020018280546109509061337d565b801561099d5780601f106109725761010080835404028352916020019161099d565b820191906000526020600020905b81548152906001019060200180831161098057829003601f168201915b5050505050905090565b60006109b282611853565b6004600083815260200190815260200160002060009054906101000a900473ffffffffffffffffffffffffffffffffffffffff169050919050565b60006109f882610ff5565b90508073ffffffffffffffffffffffffffffffffffffffff168373ffffffffffffffffffffffffffffffffffffffff1603610a68576040517f08c379a0000000000000000000000000000000000000000000000000000000008152600401610a5f90613420565b60405180910390fd5b8073ffffffffffffffffffffffffffffffffffffffff16610a8761189e565b73ffffffffffffffffffffffffffffffffffffffff161480610ab65750610ab581610ab061189e565b611493565b5b610af5576040517f08c379a0000000000000000000000000000000000000000000000000000000008152600401610aec906134b2565b60405180910390fd5b610aff83836118a6565b505050565b600d5481565b6000600880549050905090565b600f5481565b610b2e610b2861189e565b8261195f565b610b6d576040517f08c379a0000000000000000000000000000000000000000000000000000000008152600401610b6490613544565b60405180910390fd5b610b788383836119f4565b505050565b6000610b8883611109565b8210610bc9576040517f08c379a0000000000000000000000000000000000000000000000000000000008152600401610bc0906135d6565b60405180910390fd5b600660008473ffffffffffffffffffffffffffffffffffffffff1673ffffffffffffffffffffffffffffffffffffffff168152602001908152602001600020600083815260200190815260200160002054905092915050565b610c2a6117d5565b6000601160008373ffffffffffffffffffffffffffffffffffffffff1673ffffffffffffffffffffffffffffffffffffffff16815260200190815260200160002060006101000a81548160ff02191690831515021790555050565b610c8d6117d5565b3373ffffffffffffffffffffffffffffffffffffffff166108fc479081150290604051600060405180830381858888f19350505050610ccb57600080fd5b565b6000610cd7610b0a565b9050601060009054906101000a900460ff1615610cf357600080fd5b60008211610d0057600080fd5b600f54821115610d0f57600080fd5b600e548282610d1e9190613625565b1115610d2957600080fd5b610d316111e6565b73ffffffffffffffffffffffffffffffffffffffff163373ffffffffffffffffffffffffffffffffffffffff1614610dd75760011515601160003373ffffffffffffffffffffffffffffffffffffffff1673ffffffffffffffffffffffffffffffffffffffff16815260200190815260200160002060009054906101000a900460ff16151514610dd65781600d54610dc99190613659565b341015610dd557600080fd5b5b5b6000600190505b828111610e0d57610dfa848284610df59190613625565b611ced565b8080610e059061369b565b915050610dde565b50505050565b610e2e838383604051806020016040528060008152506112b8565b505050565b60606000610e4083611109565b905060008167ffffffffffffffff811115610e5e57610e5d613036565b5b604051908082528060200260200182016040528015610e8c5781602001602082028036833780820191505090505b50905060005b82811015610ed657610ea48582610b7d565b828281518110610eb757610eb66136e3565b5b6020026020010181815250508080610ece9061369b565b915050610e92565b508092505050919050565b610ee96117d5565b80600d8190555050565b610efb6117d5565b6001601160008373ffffffffffffffffffffffffffffffffffffffff1673ffffffffffffffffffffffffffffffffffffffff16815260200190815260200160002060006101000a81548160ff02191690831515021790555050565b6000610f60610b0a565b8210610fa1576040517f08c379a0000000000000000000000000000000000000000000000000000000008152600401610f9890613784565b60405180910390fd5b60088281548110610fb557610fb46136e3565b5b90600052602060002001549050919050565b610fcf6117d5565b80600b9081610fde9190613950565b5050565b601060009054906101000a900460ff1681565b60008061100183611d0b565b9050600073ffffffffffffffffffffffffffffffffffffffff168173ffffffffffffffffffffffffffffffffffffffff1603611072576040517f08c379a000000000000000000000000000000000000000000000000000000000815260040161106990613a6e565b60405180910390fd5b80915050919050565b600b80546110889061337d565b80601f01602080910402602001604051908101604052809291908181526020018280546110b49061337d565b80156111015780601f106110d657610100808354040283529160200191611101565b820191906000526020600020905b8154815290600101906020018083116110e457829003601f168201915b505050505081565b60008073ffffffffffffffffffffffffffffffffffffffff168273ffffffffffffffffffffffffffffffffffffffff1603611179576040517f08c379a000000000000000000000000000000000000000000000000000000000815260040161117090613b00565b60405180910390fd5b600360008373ffffffffffffffffffffffffffffffffffffffff1673ffffffffffffffffffffffffffffffffffffffff168152602001908152602001600020549050919050565b6111c86117d5565b6111d26000611d48565b565b6111dc6117d5565b80600f8190555050565b6000600a60009054906101000a900473ffffffffffffffffffffffffffffffffffffffff16905090565b60606001805461121f9061337d565b80601f016020809104026020016040519081016040528092919081815260200182805461124b9061337d565b80156112985780601f1061126d57610100808354040283529160200191611298565b820191906000526020600020905b81548152906001019060200180831161127b57829003601f168201915b5050505050905090565b6112b46112ad61189e565b8383611e0e565b5050565b6112c96112c361189e565b8361195f565b611308576040517f08c379a00000000000000000000000000000000000000000000000000000000081526004016112ff90613544565b60405180910390fd5b61131484848484611f7a565b50505050565b600c80546113279061337d565b80601f01602080910402602001604051908101604052809291908181526020018280546113539061337d565b80156113a05780601f10611375576101008083540402835291602001916113a0565b820191906000526020600020905b81548152906001019060200180831161138357829003601f168201915b505050505081565b60606113b382611fd6565b6113f2576040517f08c379a00000000000000000000000000000000000000000000000000000000081526004016113e990613b92565b60405180910390fd5b60006113fc612017565b9050600081511161141c576040518060200160405280600081525061144a565b80611426846120a9565b600c60405160200161143a93929190613c71565b6040516020818303038152906040525b915050919050565b600e5481565b60116020528060005260406000206000915054906101000a900460ff1681565b6114806117d5565b80600c908161148f9190613950565b5050565b6000600560008473ffffffffffffffffffffffffffffffffffffffff1673ffffffffffffffffffffffffffffffffffffffff16815260200190815260200160002060008373ffffffffffffffffffffffffffffffffffffffff1673ffffffffffffffffffffffffffffffffffffffff16815260200190815260200160002060009054906101000a900460ff16905092915050565b61152f6117d5565b600073ffffffffffffffffffffffffffffffffffffffff168173ffffffffffffffffffffffffffffffffffffffff160361159e576040517f08c379a000000000000000000000000000000000000000000000000000000000815260040161159590613d14565b60405180910390fd5b6115a781611d48565b50565b6000808273ffffffffffffffffffffffffffffffffffffffff163b119050919050565b60018111156116ed57600073ffffffffffffffffffffffffffffffffffffffff168473ffffffffffffffffffffffffffffffffffffffff16146116615780600360008673ffffffffffffffffffffffffffffffffffffffff1673ffffffffffffffffffffffffffffffffffffffff16815260200190815260200160002060008282546116599190613d34565b925050819055505b600073ffffffffffffffffffffffffffffffffffffffff168373ffffffffffffffffffffffffffffffffffffffff16146116ec5780600360008573ffffffffffffffffffffffffffffffffffffffff1673ffffffffffffffffffffffffffffffffffffffff16815260200190815260200160002060008282546116e49190613625565b925050819055505b5b50505050565b60007f80ac58cd000000000000000000000000000000000000000000000000000000007bffffffffffffffffffffffffffffffffffffffffffffffffffffffff1916827bffffffffffffffffffffffffffffffffffffffffffffffffffffffff191614806117be57507f5b5e139f000000000000000000000000000000000000000000000000000000007bffffffffffffffffffffffffffffffffffffffffffffffffffffffff1916827bffffffffffffffffffffffffffffffffffffffffffffffffffffffff1916145b806117ce57506117cd82612177565b5b9050919050565b6117dd61189e565b73ffffffffffffffffffffffffffffffffffffffff166117fb6111e6565b73ffffffffffffffffffffffffffffffffffffffff1614611851576040517f08c379a000000000000000000000000000000000000000000000000000000000815260040161184890613db4565b60405180910390fd5b565b61185c81611fd6565b61189b576040517f08c379a000000000000000000000000000000000000000000000000000000000815260040161189290613a6e565b60405180910390fd5b50565b600033905090565b816004600083815260200190815260200160002060006101000a81548173ffffffffffffffffffffffffffffffffffffffff021916908373ffffffffffffffffffffffffffffffffffffffff160217905550808273ffffffffffffffffffffffffffffffffffffffff1661191983610ff5565b73ffffffffffffffffffffffffffffffffffffffff167f8c5be1e5ebec7d5bd14f71427d1e84f3dd0314c0f7b2291e5b200ac8c7c3b92560405160405180910390a45050565b60008061196b83610ff5565b90508073ffffffffffffffffffffffffffffffffffffffff168473ffffffffffffffffffffffffffffffffffffffff1614806119ad57506119ac8185611493565b5b806119eb57508373ffffffffffffffffffffffffffffffffffffffff166119d3846109a7565b73ffffffffffffffffffffffffffffffffffffffff16145b91505092915050565b8273ffffffffffffffffffffffffffffffffffffffff16611a1482610ff5565b73ffffffffffffffffffffffffffffffffffffffff1614611a6a576040517f08c379a0000000000000000000000000000000000000000000000000000000008152600401611a6190613e46565b60405180910390fd5b600073ffffffffffffffffffffffffffffffffffffffff168273ffffffffffffffffffffffffffffffffffffffff1603611ad9576040517f08c379a0000000000000000000000000000000000000000000000000000000008152600401611ad090613ed8565b60405180910390fd5b611ae683838360016121e1565b8273ffffffffffffffffffffffffffffffffffffffff16611b0682610ff5565b73ffffffffffffffffffffffffffffffffffffffff1614611b5c576040517f08c379a0000000000000000000000000000000000000000000000000000000008152600401611b5390613e46565b60405180910390fd5b6004600082815260200190815260200160002060006101000a81549073ffffffffffffffffffffffffffffffffffffffff02191690556001600360008573ffffffffffffffffffffffffffffffffffffffff1673ffffffffffffffffffffffffffffffffffffffff168152602001908152602001600020600082825403925050819055506001600360008473ffffffffffffffffffffffffffffffffffffffff1673ffffffffffffffffffffffffffffffffffffffff16815260200190815260200160002060008282540192505081905550816002600083815260200190815260200160002060006101000a81548173ffffffffffffffffffffffffffffffffffffffff021916908373ffffffffffffffffffffffffffffffffffffffff160217905550808273ffffffffffffffffffffffffffffffffffffffff168473ffffffffffffffffffffffffffffffffffffffff167fddf252ad1be2c89b69c2b068fc378daa952ba7f163c4a11628f55a4df523b3ef60405160405180910390a4611ce8838383600161233f565b505050565b611d07828260405180602001604052806000815250612345565b5050565b60006002600083815260200190815260200160002060009054906101000a900473ffffffffffffffffffffffffffffffffffffffff169050919050565b6000600a60009054906101000a900473ffffffffffffffffffffffffffffffffffffffff16905081600a60006101000a81548173ffffffffffffffffffffffffffffffffffffffff021916908373ffffffffffffffffffffffffffffffffffffffff1602179055508173ffffffffffffffffffffffffffffffffffffffff168173ffffffffffffffffffffffffffffffffffffffff167f8be0079c531659141344cd1fd0a4f28419497f9722a3daafe3b4186f6b6457e060405160405180910390a35050565b8173ffffffffffffffffffffffffffffffffffffffff168373ffffffffffffffffffffffffffffffffffffffff1603611e7c576040517f08c379a0000000000000000000000000000000000000000000000000000000008152600401611e7390613f44565b60405180910390fd5b80600560008573ffffffffffffffffffffffffffffffffffffffff1673ffffffffffffffffffffffffffffffffffffffff16815260200190815260200160002060008473ffffffffffffffffffffffffffffffffffffffff1673ffffffffffffffffffffffffffffffffffffffff16815260200190815260200160002060006101000a81548160ff0219169083151502179055508173ffffffffffffffffffffffffffffffffffffffff168373ffffffffffffffffffffffffffffffffffffffff167f17307eab39ab6107e8899845ad3d59bd9653f200f220920489ca2b5937696c3183604051611f6d9190612c51565b60405180910390a3505050565b611f858484846119f4565b611f91848484846123a0565b611fd0576040517f08c379a0000000000000000000000000000000000000000000000000000000008152600401611fc790613fd6565b60405180910390fd5b50505050565b60008073ffffffffffffffffffffffffffffffffffffffff16611ff883611d0b565b73ffffffffffffffffffffffffffffffffffffffff1614159050919050565b6060600b80546120269061337d565b80601f01602080910402602001604051908101604052809291908181526020018280546120529061337d565b801561209f5780601f106120745761010080835404028352916020019161209f565b820191906000526020600020905b81548152906001019060200180831161208257829003601f168201915b5050505050905090565b6060600060016120b884612527565b01905060008167ffffffffffffffff8111156120d7576120d6613036565b5b6040519080825280601f01601f1916602001820160405280156121095781602001600182028036833780820191505090505b509050600082602001820190505b60011561216c578080600190039150507f3031323334353637383961626364656600000000000000000000000000000000600a86061a8153600a85816121605761215f613ff6565b5b04945060008503612117575b819350505050919050565b60007f01ffc9a7000000000000000000000000000000000000000000000000000000007bffffffffffffffffffffffffffffffffffffffffffffffffffffffff1916827bffffffffffffffffffffffffffffffffffffffffffffffffffffffff1916149050919050565b6121ed848484846115cd565b6001811115612231576040517f08c379a000000000000000000000000000000000000000000000000000000000815260040161222890614097565b60405180910390fd5b6000829050600073ffffffffffffffffffffffffffffffffffffffff168573ffffffffffffffffffffffffffffffffffffffff1603612278576122738161267a565b6122b7565b8373ffffffffffffffffffffffffffffffffffffffff168573ffffffffffffffffffffffffffffffffffffffff16146122b6576122b585826126c3565b5b5b600073ffffffffffffffffffffffffffffffffffffffff168473ffffffffffffffffffffffffffffffffffffffff16036122f9576122f481612830565b612338565b8473ffffffffffffffffffffffffffffffffffffffff168473ffffffffffffffffffffffffffffffffffffffff1614612337576123368482612901565b5b5b5050505050565b50505050565b61234f8383612980565b61235c60008484846123a0565b61239b576040517f08c379a000000000000000000000000000000000000000000000000000000000815260040161239290613fd6565b60405180910390fd5b505050565b60006123c18473ffffffffffffffffffffffffffffffffffffffff166115aa565b1561251a578373ffffffffffffffffffffffffffffffffffffffff1663150b7a026123ea61189e565b8786866040518563ffffffff1660e01b815260040161240c949392919061410c565b6020604051808303816000875af192505050801561244857506040513d601f19601f82011682018060405250810190612445919061416d565b60015b6124ca573d8060008114612478576040519150601f19603f3d011682016040523d82523d6000602084013e61247d565b606091505b5060008151036124c2576040517f08c379a00000000000000000000000000000000000000000000000000000000081526004016124b990613fd6565b60405180910390fd5b805181602001fd5b63150b7a0260e01b7bffffffffffffffffffffffffffffffffffffffffffffffffffffffff1916817bffffffffffffffffffffffffffffffffffffffffffffffffffffffff19161491505061251f565b600190505b949350505050565b600080600090507a184f03e93ff9f4daa797ed6e38ed64bf6a1f0100000000000000008310612585577a184f03e93ff9f4daa797ed6e38ed64bf6a1f010000000000000000838161257b5761257a613ff6565b5b0492506040810190505b6d04ee2d6d415b85acef810000000083106125c2576d04ee2d6d415b85acef810000000083816125b8576125b7613ff6565b5b0492506020810190505b662386f26fc1000083106125f157662386f26fc1000083816125e7576125e6613ff6565b5b0492506010810190505b6305f5e100831061261a576305f5e10083816126105761260f613ff6565b5b0492506008810190505b612710831061263f57612710838161263557612634613ff6565b5b0492506004810190505b60648310612662576064838161265857612657613ff6565b5b0492506002810190505b600a8310612671576001810190505b80915050919050565b6008805490506009600083815260200190815260200160002081905550600881908060018154018082558091505060019003906000526020600020016000909190919091505550565b600060016126d084611109565b6126da9190613d34565b90506000600760008481526020019081526020016000205490508181146127bf576000600660008673ffffffffffffffffffffffffffffffffffffffff1673ffffffffffffffffffffffffffffffffffffffff168152602001908152602001600020600084815260200190815260200160002054905080600660008773ffffffffffffffffffffffffffffffffffffffff1673ffffffffffffffffffffffffffffffffffffffff168152602001908152602001600020600084815260200190815260200160002081905550816007600083815260200190815260200160002081905550505b6007600084815260200190815260200160002060009055600660008573ffffffffffffffffffffffffffffffffffffffff1673ffffffffffffffffffffffffffffffffffffffff16815260200190815260200160002060008381526020019081526020016000206000905550505050565b600060016008805490506128449190613d34565b9050600060096000848152602001908152602001600020549050600060088381548110612874576128736136e3565b5b906000526020600020015490508060088381548110612896576128956136e3565b5b9060005260206000200181905550816009600083815260200190815260200160002081905550600960008581526020019081526020016000206000905560088054806128e5576128e461419a565b5b6001900381819060005260206000200160009055905550505050565b600061290c83611109565b905081600660008573ffffffffffffffffffffffffffffffffffffffff1673ffffffffffffffffffffffffffffffffffffffff168152602001908152602001600020600083815260200190815260200160002081905550806007600084815260200190815260200160002081905550505050565b600073ffffffffffffffffffffffffffffffffffffffff168273ffffffffffffffffffffffffffffffffffffffff16036129ef576040517f08c379a00000000000000000000000000000000000000000000000000000000081526004016129e690614215565b60405180910390fd5b6129f881611fd6565b15612a38576040517f08c379a0000000000000000000000000000000000000000000000000000000008152600401612a2f90614281565b60405180910390fd5b612a466000838360016121e1565b612a4f81611fd6565b15612a8f576040517f08c379a0000000000000000000000000000000000000000000000000000000008152600401612a8690614281565b60405180910390fd5b6001600360008473ffffffffffffffffffffffffffffffffffffffff1673ffffffffffffffffffffffffffffffffffffffff16815260200190815260200160002060008282540192505081905550816002600083815260200190815260200160002060006101000a81548173ffffffffffffffffffffffffffffffffffffffff021916908373ffffffffffffffffffffffffffffffffffffffff160217905550808273ffffffffffffffffffffffffffffffffffffffff16600073ffffffffffffffffffffffffffffffffffffffff167fddf252ad1be2c89b69c2b068fc378daa952ba7f163c4a11628f55a4df523b3ef60405160405180910390a4612b9960008383600161233f565b5050565b6000604051905090565b600080fd5b600080fd5b60007fffffffff0000000000000000000000000000000000000000000000000000000082169050919050565b612be681612bb1565b8114612bf157600080fd5b50565b600081359050612c0381612bdd565b92915050565b600060208284031215612c1f57612c1e612ba7565b5b6000612c2d84828501612bf4565b91505092915050565b60008115159050919050565b612c4b81612c36565b82525050565b6000602082019050612c666000830184612c42565b92915050565b612c7581612c36565b8114612c8057600080fd5b50565b600081359050612c9281612c6c565b92915050565b600060208284031215612cae57612cad612ba7565b5b6000612cbc84828501612c83565b91505092915050565b600081519050919050565b600082825260208201905092915050565b60005b83811015612cff578082015181840152602081019050612ce4565b60008484015250505050565b6000601f19601f8301169050919050565b6000612d2782612cc5565b612d318185612cd0565b9350612d41818560208601612ce1565b612d4a81612d0b565b840191505092915050565b60006020820190508181036000830152612d6f8184612d1c565b905092915050565b6000819050919050565b612d8a81612d77565b8114612d9557600080fd5b50565b600081359050612da781612d81565b92915050565b600060208284031215612dc357612dc2612ba7565b5b6000612dd184828501612d98565b91505092915050565b600073ffffffffffffffffffffffffffffffffffffffff82169050919050565b6000612e0582612dda565b9050919050565b612e1581612dfa565b82525050565b6000602082019050612e306000830184612e0c565b92915050565b612e3f81612dfa565b8114612e4a57600080fd5b50565b600081359050612e5c81612e36565b92915050565b60008060408385031215612e7957612e78612ba7565b5b6000612e8785828601612e4d565b9250506020612e9885828601612d98565b9150509250929050565b612eab81612d77565b82525050565b6000602082019050612ec66000830184612ea2565b92915050565b600080600060608486031215612ee557612ee4612ba7565b5b6000612ef386828701612e4d565b9350506020612f0486828701612e4d565b9250506040612f1586828701612d98565b9150509250925092565b600060208284031215612f3557612f34612ba7565b5b6000612f4384828501612e4d565b91505092915050565b600081519050919050565b600082825260208201905092915050565b6000819050602082019050919050565b612f8181612d77565b82525050565b6000612f938383612f78565b60208301905092915050565b6000602082019050919050565b6000612fb782612f4c565b612fc18185612f57565b9350612fcc83612f68565b8060005b83811015612ffd578151612fe48882612f87565b9750612fef83612f9f565b925050600181019050612fd0565b5085935050505092915050565b600060208201905081810360008301526130248184612fac565b905092915050565b600080fd5b600080fd5b7f4e487b7100000000000000000000000000000000000000000000000000000000600052604160045260246000fd5b61306e82612d0b565b810181811067ffffffffffffffff8211171561308d5761308c613036565b5b80604052505050565b60006130a0612b9d565b90506130ac8282613065565b919050565b600067ffffffffffffffff8211156130cc576130cb613036565b5b6130d582612d0b565b9050602081019050919050565b82818337600083830152505050565b60006131046130ff846130b1565b613096565b9050828152602081018484840111156131205761311f613031565b5b61312b8482856130e2565b509392505050565b600082601f8301126131485761314761302c565b5b81356131588482602086016130f1565b91505092915050565b60006020828403121561317757613176612ba7565b5b600082013567ffffffffffffffff81111561319557613194612bac565b5b6131a184828501613133565b91505092915050565b600080604083850312156131c1576131c0612ba7565b5b60006131cf85828601612e4d565b92505060206131e085828601612c83565b9150509250929050565b600067ffffffffffffffff82111561320557613204613036565b5b61320e82612d0b565b9050602081019050919050565b600061322e613229846131ea565b613096565b90508281526020810184848401111561324a57613249613031565b5b6132558482856130e2565b509392505050565b600082601f8301126132725761327161302c565b5b813561328284826020860161321b565b91505092915050565b600080600080608085870312156132a5576132a4612ba7565b5b60006132b387828801612e4d565b94505060206132c487828801612e4d565b93505060406132d587828801612d98565b925050606085013567ffffffffffffffff8111156132f6576132f5612bac565b5b6133028782880161325d565b91505092959194509250565b6000806040838503121561332557613324612ba7565b5b600061333385828601612e4d565b925050602061334485828601612e4d565b9150509250929050565b7f4e487b7100000000000000000000000000000000000000000000000000000000600052602260045260246000fd5b6000600282049050600182168061339557607f821691505b6020821081036133a8576133a761334e565b5b50919050565b7f4552433732313a20617070726f76616c20746f2063757272656e74206f776e6560008201527f7200000000000000000000000000000000000000000000000000000000000000602082015250565b600061340a602183612cd0565b9150613415826133ae565b604082019050919050565b60006020820190508181036000830152613439816133fd565b9050919050565b7f4552433732313a20617070726f76652063616c6c6572206973206e6f7420746f60008201527f6b656e206f776e6572206f7220617070726f76656420666f7220616c6c000000602082015250565b600061349c603d83612cd0565b91506134a782613440565b604082019050919050565b600060208201905081810360008301526134cb8161348f565b9050919050565b7f4552433732313a2063616c6c6572206973206e6f7420746f6b656e206f776e6560008201527f72206f7220617070726f76656400000000000000000000000000000000000000602082015250565b600061352e602d83612cd0565b9150613539826134d2565b604082019050919050565b6000602082019050818103600083015261355d81613521565b9050919050565b7f455243373231456e756d657261626c653a206f776e657220696e646578206f7560008201527f74206f6620626f756e6473000000000000000000000000000000000000000000602082015250565b60006135c0602b83612cd0565b91506135cb82613564565b604082019050919050565b600060208201905081810360008301526135ef816135b3565b9050919050565b7f4e487b7100000000000000000000000000000000000000000000000000000000600052601160045260246000fd5b600061363082612d77565b915061363b83612d77565b9250828201905080821115613653576136526135f6565b5b92915050565b600061366482612d77565b915061366f83612d77565b925082820261367d81612d77565b91508282048414831517613694576136936135f6565b5b5092915050565b60006136a682612d77565b91507fffffffffffffffffffffffffffffffffffffffffffffffffffffffffffffffff82036136d8576136d76135f6565b5b600182019050919050565b7f4e487b7100000000000000000000000000000000000000000000000000000000600052603260045260246000fd5b7f455243373231456e756d657261626c653a20676c6f62616c20696e646578206f60008201527f7574206f6620626f756e64730000000000000000000000000000000000000000602082015250565b600061376e602c83612cd0565b915061377982613712565b604082019050919050565b6000602082019050818103600083015261379d81613761565b9050919050565b60008190508160005260206000209050919050565b60006020601f8301049050919050565b600082821b905092915050565b6000600883026138067fffffffffffffffffffffffffffffffffffffffffffffffffffffffffffffffff826137c9565b61381086836137c9565b95508019841693508086168417925050509392505050565b6000819050919050565b600061384d61384861384384612d77565b613828565b612d77565b9050919050565b6000819050919050565b61386783613832565b61387b61387382613854565b8484546137d6565b825550505050565b600090565b613890613883565b61389b81848461385e565b505050565b5b818110156138bf576138b4600082613888565b6001810190506138a1565b5050565b601f821115613904576138d5816137a4565b6138de846137b9565b810160208510156138ed578190505b6139016138f9856137b9565b8301826138a0565b50505b505050565b600082821c905092915050565b600061392760001984600802613909565b1980831691505092915050565b60006139408383613916565b9150826002028217905092915050565b61395982612cc5565b67ffffffffffffffff81111561397257613971613036565b5b61397c825461337d565b6139878282856138c3565b600060209050601f8311600181146139ba57600084156139a8578287015190505b6139b28582613934565b865550613a1a565b601f1984166139c8866137a4565b60005b828110156139f0578489015182556001820191506020850194506020810190506139cb565b86831015613a0d5784890151613a09601f891682613916565b8355505b6001600288020188555050505b505050505050565b7f4552433732313a20696e76616c696420746f6b656e2049440000000000000000600082015250565b6000613a58601883612cd0565b9150613a6382613a22565b602082019050919050565b60006020820190508181036000830152613a8781613a4b565b9050919050565b7f4552433732313a2061646472657373207a65726f206973206e6f74206120766160008201527f6c6964206f776e65720000000000000000000000000000000000000000000000602082015250565b6000613aea602983612cd0565b9150613af582613a8e565b604082019050919050565b60006020820190508181036000830152613b1981613add565b9050919050565b7f4552433732314d657461646174613a2055524920717565727920666f72206e6f60008201527f6e6578697374656e7420746f6b656e0000000000000000000000000000000000602082015250565b6000613b7c602f83612cd0565b9150613b8782613b20565b604082019050919050565b60006020820190508181036000830152613bab81613b6f565b9050919050565b600081905092915050565b6000613bc882612cc5565b613bd28185613bb2565b9350613be2818560208601612ce1565b80840191505092915050565b60008154613bfb8161337d565b613c058186613bb2565b94506001821660008114613c205760018114613c3557613c68565b60ff1983168652811515820286019350613c68565b613c3e856137a4565b60005b83811015613c6057815481890152600182019150602081019050613c41565b838801955050505b50505092915050565b6000613c7d8286613bbd565b9150613c898285613bbd565b9150613c958284613bee565b9150819050949350505050565b7f4f776e61626c653a206e6577206f776e657220697320746865207a65726f206160008201527f6464726573730000000000000000000000000000000000000000000000000000602082015250565b6000613cfe602683612cd0565b9150613d0982613ca2565b604082019050919050565b60006020820190508181036000830152613d2d81613cf1565b9050919050565b6000613d3f82612d77565b9150613d4a83612d77565b9250828203905081811115613d6257613d616135f6565b5b92915050565b7f4f776e61626c653a2063616c6c6572206973206e6f7420746865206f776e6572600082015250565b6000613d9e602083612cd0565b9150613da982613d68565b602082019050919050565b60006020820190508181036000830152613dcd81613d91565b9050919050565b7f4552433732313a207472616e736665722066726f6d20696e636f72726563742060008201527f6f776e6572000000000000000000000000000000000000000000000000000000602082015250565b6000613e30602583612cd0565b9150613e3b82613dd4565b604082019050919050565b60006020820190508181036000830152613e5f81613e23565b9050919050565b7f4552433732313a207472616e7366657220746f20746865207a65726f2061646460008201527f7265737300000000000000000000000000000000000000000000000000000000602082015250565b6000613ec2602483612cd0565b9150613ecd82613e66565b604082019050919050565b60006020820190508181036000830152613ef181613eb5565b9050919050565b7f4552433732313a20617070726f766520746f2063616c6c657200000000000000600082015250565b6000613f2e601983612cd0565b9150613f3982613ef8565b602082019050919050565b60006020820190508181036000830152613f5d81613f21565b9050919050565b7f4552433732313a207472616e7366657220746f206e6f6e20455243373231526560008201527f63656976657220696d706c656d656e7465720000000000000000000000000000602082015250565b6000613fc0603283612cd0565b9150613fcb82613f64565b604082019050919050565b60006020820190508181036000830152613fef81613fb3565b9050919050565b7f4e487b7100000000000000000000000000000000000000000000000000000000600052601260045260246000fd5b7f455243373231456e756d657261626c653a20636f6e736563757469766520747260008201527f616e7366657273206e6f7420737570706f727465640000000000000000000000602082015250565b6000614081603583612cd0565b915061408c82614025565b604082019050919050565b600060208201905081810360008301526140b081614074565b9050919050565b600081519050919050565b600082825260208201905092915050565b60006140de826140b7565b6140e881856140c2565b93506140f8818560208601612ce1565b61410181612d0b565b840191505092915050565b60006080820190506141216000830187612e0c565b61412e6020830186612e0c565b61413b6040830185612ea2565b818103606083015261414d81846140d3565b905095945050505050565b60008151905061416781612bdd565b92915050565b60006020828403121561418357614182612ba7565b5b600061419184828501614158565b91505092915050565b7f4e487b7100000000000000000000000000000000000000000000000000000000600052603160045260246000fd5b7f4552433732313a206d696e7420746f20746865207a65726f2061646472657373600082015250565b60006141ff602083612cd0565b915061420a826141c9565b602082019050919050565b6000602082019050818103600083015261422e816141f2565b9050919050565b7f4552433732313a20746f6b656e20616c7265616479206d696e74656400000000600082015250565b600061426b601c83612cd0565b915061427682614235565b602082019050919050565b6000602082019050818103600083015261429a8161425e565b905091905056fea26469706673582212202c6ec701759dad9da286e9df4080f131df0f8f3258cf85bbf1994fa1d6a092a364736f6c63430008110033",
  "linkReferences": {},
  "deployedLinkReferences": {}
}